{
  "_format": "hh-sol-artifact-1",
  "contractName": "FamRewards",
  "sourceName": "contracts/FamRewards.sol",
  "abi": [
    {
      "inputs": [
        {
          "internalType": "address",
          "name": "_authorizer",
          "type": "address"
        }
      ],
      "stateMutability": "nonpayable",
      "type": "constructor"
    },
    {
      "anonymous": false,
      "inputs": [
        {
          "indexed": true,
          "internalType": "address",
          "name": "authorizer",
          "type": "address"
        }
      ],
      "name": "AuthorizerChanged",
      "type": "event"
    },
    {
      "anonymous": false,
      "inputs": [
        {
          "indexed": true,
          "internalType": "address",
          "name": "previousOwner",
          "type": "address"
        },
        {
          "indexed": true,
          "internalType": "address",
          "name": "newOwner",
          "type": "address"
        }
      ],
      "name": "OwnershipTransferred",
      "type": "event"
    },
    {
      "anonymous": false,
      "inputs": [
        {
          "indexed": true,
          "internalType": "address",
          "name": "recipient",
          "type": "address"
        },
        {
          "indexed": true,
          "internalType": "address",
          "name": "token",
          "type": "address"
        },
        {
          "indexed": false,
          "internalType": "uint256",
          "name": "amout",
          "type": "uint256"
        },
        {
          "indexed": false,
          "internalType": "uint256",
          "name": "nonce",
          "type": "uint256"
        }
      ],
      "name": "TokenPaid",
      "type": "event"
    },
    {
      "anonymous": false,
      "inputs": [
        {
          "indexed": true,
          "internalType": "address",
          "name": "recipient",
          "type": "address"
        },
        {
          "indexed": true,
          "internalType": "address",
          "name": "token",
          "type": "address"
        },
        {
          "indexed": false,
          "internalType": "uint256",
          "name": "amount",
          "type": "uint256"
        }
      ],
      "name": "Withdraw",
      "type": "event"
    },
    {
      "inputs": [],
      "name": "authorizer",
      "outputs": [
        {
          "internalType": "address",
          "name": "",
          "type": "address"
        }
      ],
      "stateMutability": "view",
      "type": "function"
    },
    {
      "inputs": [
        {
          "internalType": "address",
          "name": "token",
          "type": "address"
        },
        {
          "internalType": "uint256",
          "name": "amount",
          "type": "uint256"
        },
        {
          "internalType": "uint256",
          "name": "nonce",
          "type": "uint256"
        },
        {
          "internalType": "uint256",
          "name": "underBlock",
          "type": "uint256"
        },
        {
          "internalType": "bytes",
          "name": "signature",
          "type": "bytes"
        }
      ],
      "name": "claimTokens",
      "outputs": [],
      "stateMutability": "nonpayable",
      "type": "function"
    },
    {
      "inputs": [
        {
          "internalType": "address",
          "name": "",
          "type": "address"
        },
        {
          "internalType": "address",
          "name": "",
          "type": "address"
        }
      ],
      "name": "claimed",
      "outputs": [
        {
          "internalType": "uint256",
          "name": "",
          "type": "uint256"
        }
      ],
      "stateMutability": "view",
      "type": "function"
    },
    {
      "inputs": [
        {
          "internalType": "address",
          "name": "token",
          "type": "address"
        }
      ],
      "name": "getTokenBalance",
      "outputs": [
        {
          "internalType": "uint256",
          "name": "",
          "type": "uint256"
        }
      ],
      "stateMutability": "view",
      "type": "function"
    },
    {
      "inputs": [],
      "name": "owner",
      "outputs": [
        {
          "internalType": "address",
          "name": "",
          "type": "address"
        }
      ],
      "stateMutability": "view",
      "type": "function"
    },
    {
      "inputs": [
        {
          "internalType": "address",
          "name": "token",
          "type": "address"
        },
        {
          "internalType": "address",
          "name": "recipient",
          "type": "address"
        },
        {
          "internalType": "uint256",
          "name": "amount",
          "type": "uint256"
        },
        {
          "internalType": "uint256",
          "name": "nonce",
          "type": "uint256"
        },
        {
          "internalType": "uint256",
          "name": "underBlock",
          "type": "uint256"
        },
        {
          "internalType": "bytes",
          "name": "signature",
          "type": "bytes"
        }
      ],
      "name": "recoverAuthorizer",
      "outputs": [
        {
          "internalType": "address",
          "name": "",
          "type": "address"
        }
      ],
      "stateMutability": "view",
      "type": "function"
    },
    {
      "inputs": [],
      "name": "renounceOwnership",
      "outputs": [],
      "stateMutability": "nonpayable",
      "type": "function"
    },
    {
      "inputs": [
        {
          "internalType": "address",
          "name": "_authorizer",
          "type": "address"
        }
      ],
      "name": "setAuthorizer",
      "outputs": [],
      "stateMutability": "nonpayable",
      "type": "function"
    },
    {
      "inputs": [
        {
          "internalType": "address",
          "name": "",
          "type": "address"
        }
      ],
      "name": "totalClaimed",
      "outputs": [
        {
          "internalType": "uint256",
          "name": "",
          "type": "uint256"
        }
      ],
      "stateMutability": "view",
      "type": "function"
    },
    {
      "inputs": [
        {
          "internalType": "address",
          "name": "newOwner",
          "type": "address"
        }
      ],
      "name": "transferOwnership",
      "outputs": [],
      "stateMutability": "nonpayable",
      "type": "function"
    },
    {
      "inputs": [
        {
          "internalType": "uint256",
          "name": "",
          "type": "uint256"
        }
      ],
      "name": "usedNonces",
      "outputs": [
        {
          "internalType": "bool",
          "name": "",
          "type": "bool"
        }
      ],
      "stateMutability": "view",
      "type": "function"
    },
    {
      "inputs": [
        {
          "internalType": "address",
          "name": "token",
          "type": "address"
        }
      ],
      "name": "withdraw",
      "outputs": [],
      "stateMutability": "nonpayable",
      "type": "function"
    }
  ],
  "bytecode": "0x60806040523480156200001157600080fd5b506040516200212538038062002125833981810160405281019062000037919062000182565b620000576200004b6200009f60201b60201c565b620000a760201b60201c565b80600160006101000a81548173ffffffffffffffffffffffffffffffffffffffff021916908373ffffffffffffffffffffffffffffffffffffffff16021790555050620001fc565b600033905090565b60008060009054906101000a900473ffffffffffffffffffffffffffffffffffffffff169050816000806101000a81548173ffffffffffffffffffffffffffffffffffffffff021916908373ffffffffffffffffffffffffffffffffffffffff1602179055508173ffffffffffffffffffffffffffffffffffffffff168173ffffffffffffffffffffffffffffffffffffffff167f8be0079c531659141344cd1fd0a4f28419497f9722a3daafe3b4186f6b6457e060405160405180910390a35050565b6000815190506200017c81620001e2565b92915050565b6000602082840312156200019557600080fd5b6000620001a5848285016200016b565b91505092915050565b6000620001bb82620001c2565b9050919050565b600073ffffffffffffffffffffffffffffffffffffffff82169050919050565b620001ed81620001ae565b8114620001f957600080fd5b50565b611f19806200020c6000396000f3fe608060405234801561001057600080fd5b50600436106100b45760003560e01c8063715018a611610071578063715018a61461019d5780638da5cb5b146101a7578063b1b88378146101c5578063d09edf31146101f5578063ef5d9ae814610213578063f2fde38b14610243576100b4565b8063058a628f146100b95780630c9cbf0e146100d55780633aecd0e31461010557806351cff8d9146101355780635ad46fc1146101515780636717e41c1461016d575b600080fd5b6100d360048036038101906100ce9190611283565b61025f565b005b6100ef60048036038101906100ea91906112ac565b610362565b6040516100fc9190611995565b60405180910390f35b61011f600480360381019061011a9190611283565b610387565b60405161012c9190611995565b60405180910390f35b61014f600480360381019061014a9190611283565b610456565b005b61016b60048036038101906101669190611389565b610638565b005b61018760048036038101906101829190611441565b610ab5565b60405161019491906117f3565b60405180910390f35b6101a5610ad5565b005b6101af610b5d565b6040516101bc91906117af565b60405180910390f35b6101df60048036038101906101da91906112e8565b610b86565b6040516101ec91906117af565b60405180910390f35b6101fd610bdb565b60405161020a91906117af565b60405180910390f35b61022d60048036038101906102289190611283565b610c01565b60405161023a9190611995565b60405180910390f35b61025d60048036038101906102589190611283565b610c19565b005b610267610d11565b73ffffffffffffffffffffffffffffffffffffffff16610285610b5d565b73ffffffffffffffffffffffffffffffffffffffff16146102db576040517f08c379a00000000000000000000000000000000000000000000000000000000081526004016102d2906118d5565b60405180910390fd5b80600160006101000a81548173ffffffffffffffffffffffffffffffffffffffff021916908373ffffffffffffffffffffffffffffffffffffffff1602179055508073ffffffffffffffffffffffffffffffffffffffff167f94b979b6831a51293e2641426f97747feed46f17779fed9cd18d1ecefcfe92ef60405160405180910390a250565b6003602052816000526040600020602052806000526040600020600091509150505481565b60008073ffffffffffffffffffffffffffffffffffffffff168273ffffffffffffffffffffffffffffffffffffffff1614156103c557479050610451565b8173ffffffffffffffffffffffffffffffffffffffff166370a08231306040518263ffffffff1660e01b81526004016103fe91906117af565b60206040518083038186803b15801561041657600080fd5b505afa15801561042a573d6000803e3d6000fd5b505050506040513d601f19601f8201168201806040525081019061044e919061146a565b90505b919050565b61045e610d11565b73ffffffffffffffffffffffffffffffffffffffff1661047c610b5d565b73ffffffffffffffffffffffffffffffffffffffff16146104d2576040517f08c379a00000000000000000000000000000000000000000000000000000000081526004016104c9906118d5565b60405180910390fd5b60006104dd82610387565b905060008111610522576040517f08c379a000000000000000000000000000000000000000000000000000000000815260040161051990611915565b60405180910390fd5b600073ffffffffffffffffffffffffffffffffffffffff168273ffffffffffffffffffffffffffffffffffffffff1614156105a3573373ffffffffffffffffffffffffffffffffffffffff166108fc829081150290604051600060405180830381858888f1935050505015801561059d573d6000803e3d6000fd5b506105cf565b6105ce33828473ffffffffffffffffffffffffffffffffffffffff16610d199092919063ffffffff16565b5b8173ffffffffffffffffffffffffffffffffffffffff163373ffffffffffffffffffffffffffffffffffffffff167f9b1bfa7fa9ee420a16e124f794c35ac9f90472acc99140eb2f6447c714cad8eb8360405161062c9190611995565b60405180910390a35050565b8143111561067b576040517f08c379a0000000000000000000000000000000000000000000000000000000008152600401610672906118f5565b60405180910390fd5b6002600084815260200190815260200160002060009054906101000a900460ff16156106dc576040517f08c379a00000000000000000000000000000000000000000000000000000000081526004016106d390611935565b60405180910390fd5b60016002600085815260200190815260200160002060006101000a81548160ff0219169083151502179055508361071286610387565b1015610753576040517f08c379a000000000000000000000000000000000000000000000000000000000815260040161074a90611915565b60405180910390fd5b6000610763863387878787610b86565b9050600160009054906101000a900473ffffffffffffffffffffffffffffffffffffffff1673ffffffffffffffffffffffffffffffffffffffff168173ffffffffffffffffffffffffffffffffffffffff16146107f5576040517f08c379a00000000000000000000000000000000000000000000000000000000081526004016107ec90611895565b60405180910390fd5b600073ffffffffffffffffffffffffffffffffffffffff168673ffffffffffffffffffffffffffffffffffffffff161415610876573373ffffffffffffffffffffffffffffffffffffffff166108fc869081150290604051600060405180830381858888f19350505050158015610870573d6000803e3d6000fd5b506108a2565b6108a133868873ffffffffffffffffffffffffffffffffffffffff16610d199092919063ffffffff16565b5b61093185600360008973ffffffffffffffffffffffffffffffffffffffff1673ffffffffffffffffffffffffffffffffffffffff16815260200190815260200160002060003373ffffffffffffffffffffffffffffffffffffffff1673ffffffffffffffffffffffffffffffffffffffff16815260200190815260200160002054610d9f90919063ffffffff16565b600360008873ffffffffffffffffffffffffffffffffffffffff1673ffffffffffffffffffffffffffffffffffffffff16815260200190815260200160002060003373ffffffffffffffffffffffffffffffffffffffff1673ffffffffffffffffffffffffffffffffffffffff16815260200190815260200160002081905550610a0385600460008973ffffffffffffffffffffffffffffffffffffffff1673ffffffffffffffffffffffffffffffffffffffff16815260200190815260200160002054610d9f90919063ffffffff16565b600460008873ffffffffffffffffffffffffffffffffffffffff1673ffffffffffffffffffffffffffffffffffffffff168152602001908152602001600020819055508573ffffffffffffffffffffffffffffffffffffffff163373ffffffffffffffffffffffffffffffffffffffff167ff2a4f5f9e4353f847a9a3105227beefae23a042ea7352fbde00f50f1bf8a18378787604051610aa59291906119b0565b60405180910390a3505050505050565b60026020528060005260406000206000915054906101000a900460ff1681565b610add610d11565b73ffffffffffffffffffffffffffffffffffffffff16610afb610b5d565b73ffffffffffffffffffffffffffffffffffffffff1614610b51576040517f08c379a0000000000000000000000000000000000000000000000000000000008152600401610b48906118d5565b60405180910390fd5b610b5b6000610db5565b565b60008060009054906101000a900473ffffffffffffffffffffffffffffffffffffffff16905090565b600080610bc2888888883089604051602001610ba796959493929190611702565b60405160208183030381529060405280519060200120610e79565b9050610bce8184610ea9565b9150509695505050505050565b600160009054906101000a900473ffffffffffffffffffffffffffffffffffffffff1681565b60046020528060005260406000206000915090505481565b610c21610d11565b73ffffffffffffffffffffffffffffffffffffffff16610c3f610b5d565b73ffffffffffffffffffffffffffffffffffffffff1614610c95576040517f08c379a0000000000000000000000000000000000000000000000000000000008152600401610c8c906118d5565b60405180910390fd5b600073ffffffffffffffffffffffffffffffffffffffff168173ffffffffffffffffffffffffffffffffffffffff161415610d05576040517f08c379a0000000000000000000000000000000000000000000000000000000008152600401610cfc90611875565b60405180910390fd5b610d0e81610db5565b50565b600033905090565b610d9a8363a9059cbb60e01b8484604051602401610d389291906117ca565b604051602081830303815290604052907bffffffffffffffffffffffffffffffffffffffffffffffffffffffff19166020820180517bffffffffffffffffffffffffffffffffffffffffffffffffffffffff8381831617835250505050610f18565b505050565b60008183610dad9190611a6c565b905092915050565b60008060009054906101000a900473ffffffffffffffffffffffffffffffffffffffff169050816000806101000a81548173ffffffffffffffffffffffffffffffffffffffff021916908373ffffffffffffffffffffffffffffffffffffffff1602179055508173ffffffffffffffffffffffffffffffffffffffff168173ffffffffffffffffffffffffffffffffffffffff167f8be0079c531659141344cd1fd0a4f28419497f9722a3daafe3b4186f6b6457e060405160405180910390a35050565b600081604051602001610e8c9190611789565b604051602081830303815290604052805190602001209050919050565b600080600080610eb885610fdf565b92509250925060018684848460405160008152602001604052604051610ee1949392919061180e565b6020604051602081039080840390855afa158015610f03573d6000803e3d6000fd5b50505060206040510351935050505092915050565b6000610f7a826040518060400160405280602081526020017f5361666545524332303a206c6f772d6c6576656c2063616c6c206661696c65648152508573ffffffffffffffffffffffffffffffffffffffff166110119092919063ffffffff16565b9050600081511115610fda5780806020019051810190610f9a9190611418565b610fd9576040517f08c379a0000000000000000000000000000000000000000000000000000000008152600401610fd090611975565b60405180910390fd5b5b505050565b60008060006041845114610ff257600080fd5b6020840151915060408401519050606084015160001a92509193909250565b60606110208484600085611029565b90509392505050565b60608247101561106e576040517f08c379a0000000000000000000000000000000000000000000000000000000008152600401611065906118b5565b60405180910390fd5b6110778561113d565b6110b6576040517f08c379a00000000000000000000000000000000000000000000000000000000081526004016110ad90611955565b60405180910390fd5b6000808673ffffffffffffffffffffffffffffffffffffffff1685876040516110df9190611772565b60006040518083038185875af1925050503d806000811461111c576040519150601f19603f3d011682016040523d82523d6000602084013e611121565b606091505b5091509150611131828286611160565b92505050949350505050565b6000808273ffffffffffffffffffffffffffffffffffffffff163b119050919050565b60608315611170578290506111c0565b6000835111156111835782518084602001fd5b816040517f08c379a00000000000000000000000000000000000000000000000000000000081526004016111b79190611853565b60405180910390fd5b9392505050565b60006111da6111d5846119fe565b6119d9565b9050828152602081018484840111156111f257600080fd5b6111fd848285611b45565b509392505050565b60008135905061121481611e9e565b92915050565b60008151905061122981611eb5565b92915050565b600082601f83011261124057600080fd5b81356112508482602086016111c7565b91505092915050565b60008135905061126881611ecc565b92915050565b60008151905061127d81611ecc565b92915050565b60006020828403121561129557600080fd5b60006112a384828501611205565b91505092915050565b600080604083850312156112bf57600080fd5b60006112cd85828601611205565b92505060206112de85828601611205565b9150509250929050565b60008060008060008060c0878903121561130157600080fd5b600061130f89828a01611205565b965050602061132089828a01611205565b955050604061133189828a01611259565b945050606061134289828a01611259565b935050608061135389828a01611259565b92505060a087013567ffffffffffffffff81111561137057600080fd5b61137c89828a0161122f565b9150509295509295509295565b600080600080600060a086880312156113a157600080fd5b60006113af88828901611205565b95505060206113c088828901611259565b94505060406113d188828901611259565b93505060606113e288828901611259565b925050608086013567ffffffffffffffff8111156113ff57600080fd5b61140b8882890161122f565b9150509295509295909350565b60006020828403121561142a57600080fd5b60006114388482850161121a565b91505092915050565b60006020828403121561145357600080fd5b600061146184828501611259565b91505092915050565b60006020828403121561147c57600080fd5b600061148a8482850161126e565b91505092915050565b61149c81611ac2565b82525050565b6114b36114ae82611ac2565b611bb8565b82525050565b6114c281611ad4565b82525050565b6114d181611ae0565b82525050565b6114e86114e382611ae0565b611bca565b82525050565b60006114f982611a2f565b6115038185611a45565b9350611513818560208601611b54565b80840191505092915050565b61153061152b82611b21565b611bb8565b82525050565b600061154182611a3a565b61154b8185611a50565b935061155b818560208601611b54565b61156481611c4e565b840191505092915050565b600061157c601c83611a61565b915061158782611c6c565b601c82019050919050565b600061159f602683611a50565b91506115aa82611c95565b604082019050919050565b60006115c2601183611a50565b91506115cd82611ce4565b602082019050919050565b60006115e5602683611a50565b91506115f082611d0d565b604082019050919050565b6000611608602083611a50565b915061161382611d5c565b602082019050919050565b600061162b601983611a50565b915061163682611d85565b602082019050919050565b600061164e602b83611a50565b915061165982611dae565b604082019050919050565b6000611671601a83611a50565b915061167c82611dfd565b602082019050919050565b6000611694601d83611a50565b915061169f82611e26565b602082019050919050565b60006116b7602a83611a50565b91506116c282611e4f565b604082019050919050565b6116d681611b0a565b82525050565b6116ed6116e882611b0a565b611be6565b82525050565b6116fc81611b14565b82525050565b600061170e82896114a2565b60148201915061171e82886114a2565b60148201915061172e82876116dc565b60208201915061173e82866116dc565b60208201915061174e828561151f565b60148201915061175e82846116dc565b602082019150819050979650505050505050565b600061177e82846114ee565b915081905092915050565b60006117948261156f565b91506117a082846114d7565b60208201915081905092915050565b60006020820190506117c46000830184611493565b92915050565b60006040820190506117df6000830185611493565b6117ec60208301846116cd565b9392505050565b600060208201905061180860008301846114b9565b92915050565b600060808201905061182360008301876114c8565b61183060208301866116f3565b61183d60408301856114c8565b61184a60608301846114c8565b95945050505050565b6000602082019050818103600083015261186d8184611536565b905092915050565b6000602082019050818103600083015261188e81611592565b9050919050565b600060208201905081810360008301526118ae816115b5565b9050919050565b600060208201905081810360008301526118ce816115d8565b9050919050565b600060208201905081810360008301526118ee816115fb565b9050919050565b6000602082019050818103600083015261190e8161161e565b9050919050565b6000602082019050818103600083015261192e81611641565b9050919050565b6000602082019050818103600083015261194e81611664565b9050919050565b6000602082019050818103600083015261196e81611687565b9050919050565b6000602082019050818103600083015261198e816116aa565b9050919050565b60006020820190506119aa60008301846116cd565b92915050565b60006040820190506119c560008301856116cd565b6119d260208301846116cd565b9392505050565b60006119e36119f4565b90506119ef8282611b87565b919050565b6000604051905090565b600067ffffffffffffffff821115611a1957611a18611c1f565b5b611a2282611c4e565b9050602081019050919050565b600081519050919050565b600081519050919050565b600081905092915050565b600082825260208201905092915050565b600081905092915050565b6000611a7782611b0a565b9150611a8283611b0a565b9250827fffffffffffffffffffffffffffffffffffffffffffffffffffffffffffffffff03821115611ab757611ab6611bf0565b5b828201905092915050565b6000611acd82611aea565b9050919050565b60008115159050919050565b6000819050919050565b600073ffffffffffffffffffffffffffffffffffffffff82169050919050565b6000819050919050565b600060ff82169050919050565b6000611b2c82611b33565b9050919050565b6000611b3e82611aea565b9050919050565b82818337600083830152505050565b60005b83811015611b72578082015181840152602081019050611b57565b83811115611b81576000848401525b50505050565b611b9082611c4e565b810181811067ffffffffffffffff82111715611baf57611bae611c1f565b5b80604052505050565b6000611bc382611bd4565b9050919050565b6000819050919050565b6000611bdf82611c5f565b9050919050565b6000819050919050565b7f4e487b7100000000000000000000000000000000000000000000000000000000600052601160045260246000fd5b7f4e487b7100000000000000000000000000000000000000000000000000000000600052604160045260246000fd5b6000601f19601f8301169050919050565b60008160601b9050919050565b7f19457468657265756d205369676e6564204d6573736167653a0a333200000000600082015250565b7f4f776e61626c653a206e6577206f776e657220697320746865207a65726f206160008201527f6464726573730000000000000000000000000000000000000000000000000000602082015250565b7f496e76616c6964207369676e6174757265000000000000000000000000000000600082015250565b7f416464726573733a20696e73756666696369656e742062616c616e636520666f60008201527f722063616c6c0000000000000000000000000000000000000000000000000000602082015250565b7f4f776e61626c653a2063616c6c6572206973206e6f7420746865206f776e6572600082015250565b7f546865207369676e617475726520686173206578706972656400000000000000600082015250565b7f5468652062616c616e636520696e2074686520636f6e7472616374206973206960008201527f6e73756666696369656e74000000000000000000000000000000000000000000602082015250565b7f596f752063616e6e6f7420636c61696d2069742074776963652e000000000000600082015250565b7f416464726573733a2063616c6c20746f206e6f6e2d636f6e7472616374000000600082015250565b7f5361666545524332303a204552433230206f7065726174696f6e20646964206e60008201527f6f74207375636365656400000000000000000000000000000000000000000000602082015250565b611ea781611ac2565b8114611eb257600080fd5b50565b611ebe81611ad4565b8114611ec957600080fd5b50565b611ed581611b0a565b8114611ee057600080fd5b5056fea26469706673582212201eefb8f77899111ee66b95ecd40ab533a329f86364fffdcf43de29b53b316f0464736f6c63430008040033",
  "linkReferences": {},
  "deployedLinkReferences": {}
}